:060000000A128A11FC2F18
:100A700001300A128A1159250A128A112130FD000B
:100A8000FD0B402D08000A128A1183260A128A11D2
:100A900041300A128A1187250A128A1120308312E6
:100AA0000313A400A40B522D0000482D0A128A1132
:100AB0000028FC000130F0000030F1000310831228
:100AC000031306180314003003180130FA00FB0169
:100AD0007A08F2007B08F3000030F400F5000A12F7
:100AE0008A1123270A128A110330F0000030F10026
:100AF0007C08FA007A08F2000A128A11B6250A1256
:100B00008A110A128A11E7250A128A110800FC00CC
:100B10000130F0000030F1000310831203130618B7
:100B20000314003003180130FA00FB017A08F200C8
:100B30007B08F3000130F4000030F5000A128A113E
:100B400023270A128A110330F0000030F1007C08DC
:100B5000FA007A08F2000A128A11B6250A128A11DE
:100B60000A128A11E7250A128A110800D02D72088C
:100B7000831203138500E62D720883120313860087
:100B8000E62D7208831203138700E62D7208831284
:100B900003138800E62D7208831203138900E62DE3
:100BA0007108003A0319D52DE62D7008003A031993
:100BB000B72D013A0319BC2D033A0319C12D013A8F
:100BC0000319C62D073A0319CB2DE62D0800013075
:100BD000F0000030F100031083120313861A03148F
:100BE000003003180130F800F9017808F2007908A4
:100BF000F3000130F4000030F5000A128A112327B7
:100C00000A128A11A630F800F80B042E00000130F9
:100C1000F0000030F100031083120313861A03144E
:100C2000003003180130F800F9017808F200790863
:100C3000F3000030F400F5000A128A1123270A128B
:100C40008A110800720873040319272E282E6C2EAF
:100C5000422EFF30831603138500822EFF30831649
:100C600003138600822EFF30831603138700822E23
:100C7000FF30831603138800822EFF308316031380
:100C80008900822E7108003A0319472E822E7008BF
:100C9000003A0319292E013A03192E2E033A03199B
:100CA000332E013A0319382E073A03193D2E822EAE
:100CB000831603138501822E831603138601822E69
:100CC000831603138701822E831603138801822E55
:100CD000831603138901822E7108003A0319712EBD
:100CE000822E7008003A0319582E013A03195C2E1F
:100CF000033A0319602E013A0319642E073A0319C7
:100D0000682E822E08000330F0000030F100003021
:100D1000F200F3000A128A1122260A128A11013007
:100D200083120313A0000030861A0130013E9A2E70
:100D30000310A00DFF3E031D982E0130A1000030CE
:100D4000061A0130013EA62E0310A10DFF3E031D21
:100D5000A42E0130A200003006180130013EB22E50
:100D60000310A20DFF3E031DB02E22082104200413
:100D7000FF3AA3002308831603138605033083126A
:100D80000313A1009730A000A00BC42EA10BC42E0A
:100D90000130F0000030F100031083120313061A33
:100DA0000314003003180130A000A1012008F20054
:100DB0002108F3000030F400F5000A128A112327FD
:100DC0000A128A11203083120313A000A00BE62E12
:100DD00000000A128A1138250A128A1138300A12C4
:100DE0008A1159250A128A11203083120313A00098
:100DF000A00BF82E00000C300A128A1159250A1295
:100E00008A11203083120313A000A00B052F0000CD
:100E100006300A128A1159250A128A1120308312CB
:100E20000313A000A00B122F000002300A128A1137
:100E300059250A128A11A53083120313A000A00BB2
:100E40001F2F222F0800740875040319282F292F3B
:100E5000E52F7A2F0130F600720A302F0310F60DBD
:100E6000FF3E031D2E2F7608F70077088312031329
:100E70008504FB2F0130F600720A402F0310F60D97
:100E8000FF3E031D3E2F7608F700770883120313F9
:100E90008604FB2F0130F600720A502F0310F60D66
:100EA000FF3E031D4E2F7608F700770883120313C9
:100EB0008704FB2F0130F600720A602F0310F60D35
:100EC000FF3E031D5E2F7608F70077088312031399
:100ED0008804FB2F0130F600720A702F0310F60D04
:100EE000FF3E031D6E2F7608F70077088312031369
:100EF0008904FB2F7108003A03197F2FFB2F70081C
:100F0000003A03192A2F013A03193A2F033A031919
:100F10004A2F013A03195A2F073A03196A2FFB2F58
:100F20000130F600720A962F0310F60DFF3E031DE6
:100F3000942F7608FF3AF70077088312031385058C
:100F4000FB2F0130F600720AA72F0310F60DFF3EAB
:100F5000031DA52F7608FF3AF700770883120313C5
:100F60008605FB2F0130F600720AB82F0310F60D2C
:100F7000FF3E031DB62F7608FF3AF700770883126D
:100F800003138705FB2F0130F600720AC92F0310E7
:100F9000F60DFF3E031DC72F7608FF3AF7007708CE
:100FA000831203138805FB2F0130F600720ADA2F33
:100FB0000310F60DFF3E031DD82F7608FF3AF70009
:100FC0007708831203138905FB2F7108003A031970
:100FD000EA2FFB2F7008003A0319902F013A0319EA
:100FE000A12F033A0319B22F013A0319C32F073A6D
:100FF0000319D42FFB2F080083010A128A11432DF5
:02400E00723FFF
:00000001FF
