:060000000A128A11FC2F18
:1006BE0001300A128A119B230A128A112130FD0081
:1006CE00FD0B672B0800842B720883120313850021
:1006DE009A2B72088312031386009A2B72088312C8
:1006EE00031387009A2B72088312031388009A2B28
:1006FE0072088312031389009A2B7108003A0319AA
:10070E00892B9A2B7008003A03196B2B013A0319A7
:10071E00702B033A0319752B013A03197A2B073AFA
:10072E0003197F2B9A2B0800FC000230F0000030DA
:10073E00F10003108312031307180314003003187B
:10074E000130FA00FB017A08F2007B08F30000305A
:10075E00F400F5000A128A114A260A128A11033091
:10076E00F0000030F1007C08FA00FB017A08F2007C
:10077E007B08F3000A128A116A230A128A110A12DE
:10078E008A11FE230A128A110800FC000230F000C2
:10079E000030F10003108312031307180314003006
:1007AE0003180130FA00FB017A08F2007B08F3000F
:1007BE000130F4000030F5000A128A114A260A129E
:1007CE008A110330F0000030F1007C08FA00FB01C2
:1007DE007A08F2007B08F3000A128A116A230A12C1
:1007EE008A110A128A11FE230A128A110800023097
:1007FE00F0000030F10003108312031307190314E5
:10080E00003003180130F800F9017808F200790879
:10081E00F3000130F4000030F5000A128A114A2666
:10082E000A128A112130F800F80B1B2C0230F0004E
:10083E000030F10003108312031307190314003064
:10084E0003180130F800F9017808F2007908F30076
:10085E000030F400F5000A128A114A260A128A1193
:10086E0008005C2CFF30F200720883120313850619
:10087E00722CFF30F2007208831203138606722C5C
:10088E00FF30F2007208831203138706722CFF30BA
:10089E00F2007208831203138806722CFF30F200E6
:1008AE007208831203138906722C7108003A031919
:1008BE00612C722C7008003A0319392C013A031975
:1008CE00402C033A0319472C013A03194E2C073AD0
:1008DE000319552C722C08000A128A1194250A123B
:1008EE008A1141300A128A11CC230A128A1103305E
:1008FE00F0000030F1000030F200F3000A128A110D
:10090E00CB240A128A110230F0000030F1000230BE
:10091E00F2000030F3000030F400F5000A128A11E4
:10092E0023270A128A110230F0000030F100023043
:10093E00F2000030F3000030F400F5000A128A11C4
:10094E004A260A128A11203083120313A200A20B28
:10095E00AE2C00000230F0000030F1000230F20048
:10096E000030F3000A128A112C250A128A11033064
:10097E00F0000030F1000A128A1138240A128A118E
:10098E00782C0A128A110028720873040319D02CCD
:10099E00D12C152DEB2CFF308316031385002B2D38
:1009AE00FF308316031386002B2DFF30831603139F
:1009BE0087002B2DFF308316031388002B2DFF305D
:1009CE008316031389002B2D7108003A0319F02C9E
:1009DE002B2D7008003A0319D22C013A0319D72C8B
:1009EE00033A0319DC2C013A0319E12C073A0319D7
:1009FE00E62C2B2D8316031385012B2D8316031343
:100A0E0086012B2D8316031387012B2D83160313BB
:100A1E0088012B2D8316031389012B2D7108003AA3
:100A2E0003191A2D2B2D7008003A0319012D013AC6
:100A3E000319052D033A0319092D013A03190D2D3A
:100A4E00073A0319112D2B2D08007D2D0130F400CE
:100A5E00720A332D0310F40DFF3E031D312D740861
:100A6E00F5007508831203138506932D0130F400EB
:100A7E00720A432D0310F40DFF3E031D412D740821
:100A8E00F5007508831203138606932D0130F400CA
:100A9E00720A532D0310F40DFF3E031D512D7408E1
:100AAE00F5007508831203138706932D0130F400A9
:100ABE00720A632D0310F40DFF3E031D612D7408A1
:100ACE00F5007508831203138806932D0130F40088
:100ADE00720A732D0310F40DFF3E031D712D740861
:100AEE00F5007508831203138906932D7108003AD9
:100AFE000319822D932D7008003A03192D2D013AFA
:100B0E0003193D2D033A03194D2D013A03195D2D9D
:100B1E00073A03196D2D932D08000330F0000030B5
:100B2E00F1000030F200F3000A128A11CB240A12EF
:100B3E008A110230F0000030F1000310831203130B
:100B4E0007180314003003180130A000A10120087B
:100B5E00F2002108F3000030F400F5000A128A11A9
:100B6E0023270A128A110230F0000030F100031020
:100B7E008312031387180314003003180130A000EA
:100B8E00A1012008F2002108F3000030F400F50066
:100B9E000A128A1123270A128A110230F00000303D
:100BAE00F100031083120313071903140030031806
:100BBE000130A000A1012008F2002108F30000304E
:100BCE00F400F5000A128A1123270A128A11023044
:100BDE00F0000030F1000310831203138718031482
:100BEE00003003180130A000A1012008F2002108F6
:100BFE00F3000130F4000030F5000A128A114A2683
:100C0E000A128A11203083120313A000A00B0D2E9E
:100C1E0000000A128A115F230A128A1138300A1252
:100C2E008A119B230A128A11203083120313A0000B
:100C3E00A00B1F2E00000C300A128A119B230A12E1
:100C4E008A11203083120313A000A00B2C2E00005B
:100C5E0006300A128A119B230A128A11203083123F
:100C6E000313A000A00B392E000002300A128A11C5
:100C7E009B230A128A11A53083120313A000A00B26
:100C8E00462E492E08007408750403194F2E502E57
:100C9E000C2FA12E0130F600720A572E0310F60DFE
:100CAE00FF3E031D552E7608F700770883120313B7
:100CBE008504222F0130F600720A672E0310F60DFE
:100CCE00FF3E031D652E7608F70077088312031387
:100CDE008604222F0130F600720A772E0310F60DCD
:100CEE00FF3E031D752E7608F70077088312031357
:100CFE008704222F0130F600720A872E0310F60D9C
:100D0E00FF3E031D852E7608F70077088312031326
:100D1E008804222F0130F600720A972E0310F60D6A
:100D2E00FF3E031D952E7608F700770883120313F6
:100D3E008904222F7108003A0319A62E222F70085B
:100D4E00003A0319512E013A0319612E033A031981
:100D5E00712E013A0319812E073A0319912E222F73
:100D6E000130F600720ABD2E0310F60DFF3E031D74
:100D7E00BB2E7608FF3AF70077088312031385051A
:100D8E00222F0130F600720ACE2E0310F60DFF3E12
:100D9E00031DCC2E7608FF3AF70077088312031353
:100DAE008605222F0130F600720ADF2E0310F60D93
:100DBE00FF3E031DDD2E7608FF3AF70077088312FB
:100DCE0003138705222F0130F600720AF02E03104E
:100DDE00F60DFF3E031DEE2E7608FF3AF70077085C
:100DEE00831203138805222F0130F600720A012F99
:100DFE000310F60DFF3E031DFF2E7608FF3AF70097
:100E0E007708831203138905222F7108003A0319FC
:100E1E00112F222F7008003A0319B72E013A031929
:100E2E00C82E033A0319D92E013A0319EA2E073AAE
:100E3E000319FB2E222F0800740875040319282F9E
:100E4E00292FE52F7A2F0130F600720A302F03106A
:100E5E00F60DFF3E031D2E2F7608F700770883163A
:100E6E0003138504FB2F0130F600720A402F031086
:100E7E00F60DFF3E031D3E2F7608F700770883160A
:100E8E0003138604FB2F0130F600720A502F031055
:100E9E00F60DFF3E031D4E2F7608F70077088316DA
:100EAE0003138704FB2F0130F600720A602F031024
:100EBE00F60DFF3E031D5E2F7608F70077088316AA
:100ECE0003138804FB2F0130F600720A702F0310F3
:100EDE00F60DFF3E031D6E2F7608F700770883167A
:100EEE0003138904FB2F7108003A03197F2FFB2F80
:100EFE007008003A03192A2F013A03193A2F033AC0
:100F0E0003194A2F013A03195A2F073A03196A2F68
:100F1E00FB2F0130F600720A962F0310F60DFF3EDE
:100F2E00031D942F7608FF3AF700770883160313F4
:100F3E008505FB2F0130F600720AA72F0310F60D60
:100F4E00FF3E031DA52F7608FF3AF700770883169C
:100F5E0003138605FB2F0130F600720AB82F03101B
:100F6E00F60DFF3E031DB62F7608FF3AF700770801
:100F7E00831603138705FB2F0130F600720AC92F63
:100F8E000310F60DFF3E031DC72F7608FF3AF7003C
:100F9E007708831603138805FB2F0130F600720ABB
:100FAE00DA2F0310F60DFF3E031DD82F7608FF3AF9
:100FBE00F7007708831603138905FB2F7108003A93
:100FCE000319EA2FFB2F7008003A0319902F013AEC
:100FDE000319A12F033A0319B22F013A0319C32F94
:100FEE00073A0319D42FFB2F080083010A128A1126
:020FFE00732C52
:00000001FF
