:060000000A128A11FC2F18
:100E0A000130F0000030F1000030F200F3000A1265
:100E1A008A119B270A128A110130F0000030F10072
:100E2A000730F2000030F3000A128A112F270A1243
:100E3A008A110130F0000030F1000A128A1160278D
:100E4A000A128A112130F400F40B292F1E2F0A12DC
:100E5A008A110028492F72088312031385005F2F15
:100E6A0072088312031386005F2F7208831203131A
:100E7A0087005F2F72088312031388005F2F72089E
:100E8A008312031389005F2F7108003A03194E2F4A
:100E9A005F2F7008003A0319302F013A0319352FD2
:100EAA00033A03193A2F013A03193F2F073A031954
:100EBA00442F5F2F0800842FFF30F200720883123C
:100ECA00031385069A2FFF30F20072088312031368
:100EDA0086069A2FFF30F2007208831203138706E0
:100EEA009A2FFF30F20072088312031388069A2F92
:100EFA00FF30F20072088312031389069A2F7108D1
:100F0A00003A0319892F9A2F7008003A0319612FA2
:100F1A00013A0319682F033A03196F2F013A03198B
:100F2A00762F073A03197D2F9A2F08007208730447
:100F3A000319A02FA12FE52FBB2FFF308316031310
:100F4A008500FB2FFF30831603138600FB2FFF302B
:100F5A00831603138700FB2FFF30831603138800C1
:100F6A00FB2FFF30831603138900FB2F7108003A09
:100F7A000319C02FFB2F7008003A0319A22F013A58
:100F8A000319A72F033A0319AC2F013A0319B12FFA
:100F9A00073A0319B62FFB2F831603138501FB2F7C
:100FAA00831603138601FB2F831603138701FB2F76
:100FBA00831603138801FB2F831603138901FB2F62
:100FCA007108003A0319EA2FFB2F7008003A031937
:100FDA00D12F013A0319D52F033A0319D92F013A10
:100FEA000319DD2F073A0319E12FFB2F08008301AC
:060FFA000A128A11052F06
:00000001FF
