:060000000A128A11FC2F18
:100EB2000310831203138518031400300318013042
:100EC200FA00FB017A08F0007B08F1000130F20021
:100ED2000030F3000630F4000030F5000030F60078
:100EE200F7000A128A117F270A128A112130FA00AA
:100EF200FA0B792F772F0A128A1100288312031313
:100F02009F017008F80000309F190130013E8B2FBD
:100F12000310F80DFF3E031D892F7808F9007908A8
:100F22009F04DA2F7408F80000301F1B0130013EC5
:100F32009C2F0310F80DFF3E031D9A2F7808F9002D
:100F420079089F040130F8000030831603131F1B39
:100F52000130013EAE2F0310F80DFF3E031DAC2FF2
:100F62007808F90079089F04E72F7408F800003028
:100F72001F1B0130013EBF2F0310F80DFF3E031D62
:100F8200BD2F7808F90079089F040130F80000307D
:100F9200831603131F1B0130013ED12F0310F80DDE
:100FA200FF3E031DCF2F7808FF3AF90079089F050D
:100FB200E72F7708003A0319DF2FFB2F7608003A54
:100FC2000319B62F013A0319932FFB2F0130F800B2
:100FD2000030831203131F180130013EF22F031059
:100FE200F80DFF3E031DF02F7808F90079088316EB
:0E0FF20003139F04080083010A128A11592F6D
:02400E00723FFF
:00000001FF
