:060000000A128A11FC2F18
:100AA200720873040319562D572D9B2D712DFF309B
:100AB200831603138500B12DFF30831603138600BE
:100AC200B12DFF30831603138700B12DFF3083163B
:100AD20003138800B12D0730831603138900B12D4B
:100AE2007108003A0319762DB12D7008003A0319E6
:100AF200582D013A03195D2D033A0319622D013A6B
:100B02000319672D073A03196C2DB12D83160313B0
:100B12008501B12D831603138601B12D83160313AC
:100B22008701B12D831603138801B12D8316031398
:100B32008901B12D7108003A0319A02DB12D700859
:100B4200003A0319872D013A03198B2D033A031931
:100B52008F2D013A0319932D073A0319972DB12DC1
:100B62000800032E0130F400720AB92D0310F40DAF
:100B7200FF3E031DB72D7408F50075088312031399
:100B82008506192E0130F400720AC92D0310F40DE6
:100B9200FF3E031DC72D7408F50075088312031369
:100BA2008606192E0130F400720AD92D0310F40DB5
:100BB200FF3E031DD72D7408F50075088312031339
:100BC2008706192E0130F400720AE92D0310F40D84
:100BD200FF3E031DE72D7408F50075088312031309
:100BE2008806192E0130F400720AF92D0310F40D53
:100BF200FF3E031DF72D7408F500750883120313D9
:100C02008906192E7108003A0319082E192E700848
:100C1200003A0319B32D013A0319C32D033A0319FC
:100C2200D32D013A0319E32D073A0319F32D192E97
:100C320008000030F000F1000030F200F3000A1268
:100C42008A1151250A128A110430F0000030F10095
:100C52000030F200F3000A128A1151250A128A1199
:100C62000230F0000030F1000030F200F3000A120E
:100C72008A1151250A128A110330F0000030F10066
:100C82000030F200F3000A128A1151250A128A1169
:100C92000130F0000030F1000030F200F3000A12DF
:100CA2008A1151250A128A110130F0000030F10038
:100CB2000230F2000030F3000030F400F5000A12B6
:100CC2008A1123270A128A110130F0000030F10044
:100CD2000030F200F3000130F4000030F5000A1297
:100CE2008A1123270A128A110130F0000030F10024
:100CF2000030F200F3000A128A119C260A128A11AD
:100D0200700871040319862E872E752E2130FB0080
:100D1200FB0B892E0130F0000030F1000230F200AE
:100D22000030F3000A128A11B2250A128A11752EB6
:100D32000A128A1100280C2FF001F101222F720AE7
:100D4200F4000130F5000030F600AA2E0310F50D74
:100D5200F60DF40BA72E7518AF2EB12E0130B22E60
:100D62000030F700F8017708F0007808F100222F30
:100D7200720AF4000130F5000030F600C32E0310B1
:100D8200F50DF60DF40BC02EF518C82ECA2E013043
:100D9200CB2E0030F700F8017708F0007808F10058
:100DA200222F720AF4000130F5000030F600DC2E2A
:100DB2000310F50DF60DF40BD92E03307505F7006F
:100DC20000307605F80077087804031DE92EEB2E33
:100DD2000130EC2E0030F900FA017908F0007A08AF
:100DE200F100222F720AF4000130F5000030F60003
:100DF200FD2E0310F50DF60DF40BFA2E7519022FC8
:100E0200042F0130052F0030F700F8017708F000B9
:100E12007808F100222F7108003A0319112F9D2E34
:100E22007008003A03199D2E013A0319A02E033AC5
:100E32000319B92E013A0319D22E073A0319F32ED8
:100E42009D2E0800740875040319282F292FE52FF9
:100E52007A2F0130F600720A302F0310F60DFF3E92
:100E6200031D2E2F7608F7007708831603138504D7
:100E7200FB2F0130F600720A402F0310F60DFF3EE1
:100E8200031D3E2F7608F7007708831603138604A6
:100E9200FB2F0130F600720A502F0310F60DFF3EB1
:100EA200031D4E2F7608F700770883160313870475
:100EB200FB2F0130F600720A602F0310F60DFF3E81
:100EC200031D5E2F7608F700770883160313880444
:100ED200FB2F0130F600720A702F0310F60DFF3E51
:100EE200031D6E2F7608F700770883160313890413
:100EF200FB2F7108003A03197F2FFB2F7008003A6D
:100F020003192A2F013A03193A2F033A03194A2FD8
:100F1200013A03195A2F073A03196A2FFB2F01309E
:100F2200F600720A962F0310F60DFF3E031D942F52
:100F32007608FF3AF7007708831603138505FB2F1F
:100F42000130F600720AA72F0310F60DFF3E031DB3
:100F5200A52F7608FF3AF700770883160313860554
:100F6200FB2F0130F600720AB82F0310F60DFF3E78
:100F7200031DB62F7608FF3AF7007708831603138E
:100F82008705FB2F0130F600720AC92F0310F60DF8
:100F9200FF3E031DC72F7608FF3AF7007708831636
:100FA20003138805FB2F0130F600720ADA2F0310B3
:100FB200F60DFF3E031DD82F7608FF3AF70077089B
:100FC200831603138905FB2F7108003A0319EA2FD0
:100FD200FB2F7008003A0319902F013A0319A12F31
:100FE200033A0319B22F013A0319C32F073A03191F
:0E0FF200D42FFB2F080083010A128A111A2E39
:00000001FF
